{
  "_format": "hh-sol-artifact-1",
  "contractName": "FishMarketplace",
  "sourceName": "contracts/FishMarketplace.sol",
  "abi": [
    {
      "inputs": [
        {
          "internalType": "address",
          "name": "fisheriesManagementAddress",
          "type": "address"
        }
      ],
      "stateMutability": "nonpayable",
      "type": "constructor"
    },
    {
      "anonymous": false,
      "inputs": [
        {
          "indexed": false,
          "internalType": "uint256",
          "name": "listingId",
          "type": "uint256"
        },
        {
          "indexed": false,
          "internalType": "address",
          "name": "buyer",
          "type": "address"
        },
        {
          "indexed": false,
          "internalType": "uint256",
          "name": "weight",
          "type": "uint256"
        },
        {
          "indexed": false,
          "internalType": "uint256",
          "name": "totalPrice",
          "type": "uint256"
        }
      ],
      "name": "FishBought",
      "type": "event"
    },
    {
      "anonymous": false,
      "inputs": [
        {
          "indexed": false,
          "internalType": "uint256",
          "name": "listingId",
          "type": "uint256"
        },
        {
          "indexed": false,
          "internalType": "uint256",
          "name": "batchId",
          "type": "uint256"
        },
        {
          "indexed": false,
          "internalType": "uint256",
          "name": "weight",
          "type": "uint256"
        },
        {
          "indexed": false,
          "internalType": "uint256",
          "name": "pricePerKg",
          "type": "uint256"
        }
      ],
      "name": "FishListed",
      "type": "event"
    },
    {
      "anonymous": false,
      "inputs": [
        {
          "indexed": false,
          "internalType": "uint256",
          "name": "listingId",
          "type": "uint256"
        },
        {
          "indexed": false,
          "internalType": "uint256",
          "name": "newPricePerKg",
          "type": "uint256"
        }
      ],
      "name": "PriceUpdated",
      "type": "event"
    },
    {
      "inputs": [
        {
          "internalType": "uint256",
          "name": "listingId",
          "type": "uint256"
        },
        {
          "internalType": "uint256",
          "name": "newPricePerKg",
          "type": "uint256"
        }
      ],
      "name": "adjustListingPrice",
      "outputs": [],
      "stateMutability": "nonpayable",
      "type": "function"
    },
    {
      "inputs": [
        {
          "internalType": "uint256",
          "name": "listingId",
          "type": "uint256"
        },
        {
          "internalType": "uint256",
          "name": "weight",
          "type": "uint256"
        }
      ],
      "name": "buyFish",
      "outputs": [],
      "stateMutability": "payable",
      "type": "function"
    },
    {
      "inputs": [
        {
          "internalType": "uint256",
          "name": "listingId",
          "type": "uint256"
        }
      ],
      "name": "getListingDetails",
      "outputs": [
        {
          "internalType": "uint256",
          "name": "",
          "type": "uint256"
        },
        {
          "internalType": "uint256",
          "name": "",
          "type": "uint256"
        },
        {
          "internalType": "address",
          "name": "",
          "type": "address"
        },
        {
          "internalType": "uint256",
          "name": "",
          "type": "uint256"
        },
        {
          "internalType": "uint256",
          "name": "",
          "type": "uint256"
        },
        {
          "internalType": "uint256",
          "name": "",
          "type": "uint256"
        },
        {
          "internalType": "bool",
          "name": "",
          "type": "bool"
        }
      ],
      "stateMutability": "view",
      "type": "function"
    },
    {
      "inputs": [
        {
          "internalType": "uint256",
          "name": "batchId",
          "type": "uint256"
        },
        {
          "internalType": "uint256",
          "name": "weight",
          "type": "uint256"
        },
        {
          "internalType": "uint256",
          "name": "pricePerKg",
          "type": "uint256"
        }
      ],
      "name": "listFish",
      "outputs": [],
      "stateMutability": "nonpayable",
      "type": "function"
    },
    {
      "inputs": [
        {
          "internalType": "uint256",
          "name": "",
          "type": "uint256"
        }
      ],
      "name": "listings",
      "outputs": [
        {
          "internalType": "uint256",
          "name": "listingId",
          "type": "uint256"
        },
        {
          "internalType": "uint256",
          "name": "batchId",
          "type": "uint256"
        },
        {
          "internalType": "address",
          "name": "fisher",
          "type": "address"
        },
        {
          "internalType": "uint256",
          "name": "totalWeight",
          "type": "uint256"
        },
        {
          "internalType": "uint256",
          "name": "availableWeight",
          "type": "uint256"
        },
        {
          "internalType": "uint256",
          "name": "pricePerKg",
          "type": "uint256"
        },
        {
          "internalType": "bool",
          "name": "isSoldOut",
          "type": "bool"
        }
      ],
      "stateMutability": "view",
      "type": "function"
    },
    {
      "inputs": [],
      "name": "nextListingId",
      "outputs": [
        {
          "internalType": "uint256",
          "name": "",
          "type": "uint256"
        }
      ],
      "stateMutability": "view",
      "type": "function"
    },
    {
      "inputs": [],
      "name": "pricingAdjustmentContract",
      "outputs": [
        {
          "internalType": "address",
          "name": "",
          "type": "address"
        }
      ],
      "stateMutability": "view",
      "type": "function"
    },
    {
      "inputs": [
        {
          "internalType": "address",
          "name": "_pricingAdjustmentContract",
          "type": "address"
        }
      ],
      "name": "setPricingAdjustmentContract",
      "outputs": [],
      "stateMutability": "nonpayable",
      "type": "function"
    }
  ],
  "bytecode": "0x60806040526001600355348015601457600080fd5b506040516109123803806109128339810160408190526031916055565b600080546001600160a01b0319166001600160a01b03929092169190911790556083565b600060208284031215606657600080fd5b81516001600160a01b0381168114607c57600080fd5b9392505050565b610880806100926000396000f3fe60806040526004361061007b5760003560e01c8063c2a410341161004e578063c2a4103414610116578063d2195b0614610136578063de74e57b14610156578063fb05da2e1461020057600080fd5b80632dd63f07146100805780633eb4e38a146100a25780635e1ae743146100df578063aaccf1ec146100f2575b600080fd5b34801561008c57600080fd5b506100a061009b366004610732565b610266565b005b3480156100ae57600080fd5b506001546100c2906001600160a01b031681565b6040516001600160a01b0390911681526020015b60405180910390f35b6100a06100ed366004610762565b6102f6565b3480156100fe57600080fd5b5061010860035481565b6040519081526020016100d6565b34801561012257600080fd5b506100a0610131366004610762565b6104bb565b34801561014257600080fd5b506100a0610151366004610784565b610510565b34801561016257600080fd5b506101bb6101713660046107b0565b600260208190526000918252604090912080546001820154928201546003830154600484015460058501546006909501549395946001600160a01b03909316939192909160ff1687565b6040805197885260208801969096526001600160a01b03909416948601949094526060850191909152608084015260a0830191909152151560c082015260e0016100d6565b34801561020c57600080fd5b506101bb61021b3660046107b0565b6000908152600260208190526040909120805460018201549282015460038301546004840154600585015460069095015493966001600160a01b03909316949193909260ff90911690565b6001546001600160a01b0316156102d45760405162461bcd60e51b815260206004820152602760248201527f50726963696e672061646a7573746d656e7420636f6e747261637420616c726560448201526618591e481cd95d60ca1b60648201526084015b60405180910390fd5b600180546001600160a01b0319166001600160a01b0392909216919091179055565b6000828152600260205260409020600681015460ff161561034f5760405162461bcd60e51b8152602060048201526013602482015272131a5cdd1a5b99c81a5cc81cdbdb19081bdd5d606a1b60448201526064016102cb565b80600401548211156103a35760405162461bcd60e51b815260206004820152601b60248201527f4e6f7420656e6f7567682077656967687420617661696c61626c65000000000060448201526064016102cb565b60008160050154836103b591906107df565b9050803410156103fc5760405162461bcd60e51b8152602060048201526012602482015271496e73756666696369656e742066756e647360701b60448201526064016102cb565b8282600401600082825461041091906107fc565b909155505060048201546000036104315760068201805460ff191660011790555b60028201546040516001600160a01b039091169082156108fc029083906000818181858888f1935050505015801561046d573d6000803e3d6000fd5b5060408051858152336020820152908101849052606081018290527f12b9d6f1e9f7c81270e0365f623addb1d4e51d6884d5031eb7a631bbd0e0033a9060800160405180910390a150505050565b600082815260026020908152604091829020600581018490558251858152918201849052917f945c1c4e99aa89f648fbfe3df471b916f719e16d960fcec0737d4d56bd696838910160405180910390a1505050565b60005460405163a43daf5760e01b8152600481018590526001600160a01b039091169063a43daf5790602401602060405180830381865afa158015610559573d6000803e3d6000fd5b505050506040513d601f19601f8201168201806040525081019061057d919061080f565b6105c95760405162461bcd60e51b815260206004820152601860248201527f4261746368206973206e6f74207375737461696e61626c65000000000000000060448201526064016102cb565b600054604051639b49388160e01b815260048101859052602481018490526001600160a01b0390911690639b49388190604401600060405180830381600087803b15801561061657600080fd5b505af115801561062a573d6000803e3d6000fd5b50506040805160e0810182526003805480835260208084018a81523385870190815260608087018c815260808089018e815260a08a018e8152600060c08c018181529981526002808a52908d90209b518c55965160018c01559451958a0180546001600160a01b0319166001600160a01b0390971696909617909555905188880155925160048801559051600587015592516006909501805460ff191695151595909517909455915484519081529182018990529281018790529182018590527f8af6198b2407fc459257acb7dfb8a3a037bc661507d804a99bee424dbe111106935001905060405180910390a16003805490600061072883610831565b9190505550505050565b60006020828403121561074457600080fd5b81356001600160a01b038116811461075b57600080fd5b9392505050565b6000806040838503121561077557600080fd5b50508035926020909101359150565b60008060006060848603121561079957600080fd5b505081359360208301359350604090920135919050565b6000602082840312156107c257600080fd5b5035919050565b634e487b7160e01b600052601160045260246000fd5b80820281158282048414176107f6576107f66107c9565b92915050565b818103818111156107f6576107f66107c9565b60006020828403121561082157600080fd5b8151801515811461075b57600080fd5b600060018201610843576108436107c9565b506001019056fea2646970667358221220667c4213e45a22aa7b16ec039c3b7f3148ac94026701eab7aa8f3f5eb2c19b6c64736f6c634300081b0033",
  "linkReferences": {},
  "deployedLinkReferences": {}
}