{
  "address": "0x5FbDB2315678afecb367f032d93F642f64180aa3",
  "abi": [
    {
      "inputs": [],
      "stateMutability": "nonpayable",
      "type": "constructor"
    },
    {
      "anonymous": false,
      "inputs": [
        {
          "indexed": false,
          "internalType": "uint256",
          "name": "batchId",
          "type": "uint256"
        },
        {
          "indexed": false,
          "internalType": "string",
          "name": "reason",
          "type": "string"
        }
      ],
      "name": "DisputeRaised",
      "type": "event"
    },
    {
      "anonymous": false,
      "inputs": [
        {
          "indexed": false,
          "internalType": "uint256",
          "name": "batchId",
          "type": "uint256"
        },
        {
          "indexed": false,
          "internalType": "address",
          "name": "fisher",
          "type": "address"
        },
        {
          "indexed": false,
          "internalType": "uint256",
          "name": "weight",
          "type": "uint256"
        },
        {
          "indexed": false,
          "internalType": "uint256",
          "name": "pricePerKg",
          "type": "uint256"
        }
      ],
      "name": "FishLogged",
      "type": "event"
    },
    {
      "anonymous": false,
      "inputs": [
        {
          "indexed": false,
          "internalType": "uint256",
          "name": "batchId",
          "type": "uint256"
        },
        {
          "indexed": false,
          "internalType": "bool",
          "name": "sustainable",
          "type": "bool"
        }
      ],
      "name": "SustainabilityUpdated",
      "type": "event"
    },
    {
      "inputs": [
        {
          "internalType": "uint256",
          "name": "batchId",
          "type": "uint256"
        },
        {
          "internalType": "uint256",
          "name": "transferId",
          "type": "uint256"
        }
      ],
      "name": "addTransferToBatch",
      "outputs": [],
      "stateMutability": "nonpayable",
      "type": "function"
    },
    {
      "inputs": [
        {
          "internalType": "uint256",
          "name": "",
          "type": "uint256"
        }
      ],
      "name": "batches",
      "outputs": [
        {
          "internalType": "uint256",
          "name": "id",
          "type": "uint256"
        },
        {
          "internalType": "address",
          "name": "fisher",
          "type": "address"
        },
        {
          "internalType": "uint256",
          "name": "weight",
          "type": "uint256"
        },
        {
          "internalType": "uint256",
          "name": "pricePerKg",
          "type": "uint256"
        },
        {
          "internalType": "bool",
          "name": "isSold",
          "type": "bool"
        },
        {
          "internalType": "bool",
          "name": "inDispute",
          "type": "bool"
        },
        {
          "internalType": "bool",
          "name": "sustainable",
          "type": "bool"
        }
      ],
      "stateMutability": "view",
      "type": "function"
    },
    {
      "inputs": [
        {
          "internalType": "uint256",
          "name": "batchId",
          "type": "uint256"
        }
      ],
      "name": "getBatchSustainability",
      "outputs": [
        {
          "internalType": "bool",
          "name": "",
          "type": "bool"
        }
      ],
      "stateMutability": "view",
      "type": "function"
    },
    {
      "inputs": [
        {
          "internalType": "uint256",
          "name": "batchId",
          "type": "uint256"
        }
      ],
      "name": "getFishBatch",
      "outputs": [
        {
          "internalType": "uint256",
          "name": "",
          "type": "uint256"
        },
        {
          "internalType": "address",
          "name": "",
          "type": "address"
        },
        {
          "internalType": "uint256",
          "name": "",
          "type": "uint256"
        },
        {
          "internalType": "uint256",
          "name": "",
          "type": "uint256"
        },
        {
          "internalType": "bool",
          "name": "",
          "type": "bool"
        },
        {
          "internalType": "bool",
          "name": "",
          "type": "bool"
        },
        {
          "internalType": "bool",
          "name": "",
          "type": "bool"
        },
        {
          "internalType": "uint256[]",
          "name": "",
          "type": "uint256[]"
        }
      ],
      "stateMutability": "view",
      "type": "function"
    },
    {
      "inputs": [
        {
          "internalType": "uint256",
          "name": "batchId",
          "type": "uint256"
        }
      ],
      "name": "getTransferIds",
      "outputs": [
        {
          "internalType": "uint256[]",
          "name": "",
          "type": "uint256[]"
        }
      ],
      "stateMutability": "view",
      "type": "function"
    },
    {
      "inputs": [],
      "name": "government",
      "outputs": [
        {
          "internalType": "address",
          "name": "",
          "type": "address"
        }
      ],
      "stateMutability": "view",
      "type": "function"
    },
    {
      "inputs": [],
      "name": "inspectorAuth",
      "outputs": [
        {
          "internalType": "contract InspectorAuthorization",
          "name": "",
          "type": "address"
        }
      ],
      "stateMutability": "view",
      "type": "function"
    },
    {
      "inputs": [
        {
          "internalType": "uint256",
          "name": "weight",
          "type": "uint256"
        },
        {
          "internalType": "uint256",
          "name": "pricePerKg",
          "type": "uint256"
        }
      ],
      "name": "logCatch",
      "outputs": [],
      "stateMutability": "nonpayable",
      "type": "function"
    },
    {
      "inputs": [],
      "name": "nextBatchId",
      "outputs": [
        {
          "internalType": "uint256",
          "name": "",
          "type": "uint256"
        }
      ],
      "stateMutability": "view",
      "type": "function"
    },
    {
      "inputs": [
        {
          "internalType": "uint256",
          "name": "batchId",
          "type": "uint256"
        },
        {
          "internalType": "string",
          "name": "reason",
          "type": "string"
        }
      ],
      "name": "raiseDispute",
      "outputs": [],
      "stateMutability": "nonpayable",
      "type": "function"
    },
    {
      "inputs": [
        {
          "internalType": "address",
          "name": "addr",
          "type": "address"
        }
      ],
      "name": "setInspectorAuthorization",
      "outputs": [],
      "stateMutability": "nonpayable",
      "type": "function"
    },
    {
      "inputs": [
        {
          "internalType": "uint256",
          "name": "batchId",
          "type": "uint256"
        },
        {
          "internalType": "bool",
          "name": "sustainable",
          "type": "bool"
        }
      ],
      "name": "updateSustainability",
      "outputs": [],
      "stateMutability": "nonpayable",
      "type": "function"
    },
    {
      "inputs": [
        {
          "internalType": "uint256",
          "name": "batchId",
          "type": "uint256"
        },
        {
          "internalType": "uint256",
          "name": "weight",
          "type": "uint256"
        }
      ],
      "name": "updateweight",
      "outputs": [],
      "stateMutability": "nonpayable",
      "type": "function"
    }
  ],
  "transactionHash": "0x97440f6bd291327d74c9d9b62d5e398150aacbd067b65d50bce5269edcbc27de",
  "args": [],
  "numDeployments": 1,
  "solcInputHash": "cff29281d7ff05c287594e8e5a024a5f",
  "bytecode": "0x608060405260018055348015601357600080fd5b50600080546001600160a01b03191633179055610d74806100356000396000f3fe608060405234801561001057600080fd5b50600436106100cf5760003560e01c80636444ba811161008c5780639b493881116100665780639b493881146101c3578063a43daf57146101d6578063b32c4d8d14610212578063b467b006146102b357600080fd5b80636444ba81146101725780636eb46b19146101855780638462a7f8146101ac57600080fd5b8063228679a3146100d45780632672f526146100e9578063488ddc711461011957806353a002d81461012c578063571743ce1461014c5780635aef573c1461015f575b600080fd5b6100e76100e23660046109e1565b6102c6565b005b6000546100fc906001600160a01b031681565b6040516001600160a01b0390911681526020015b60405180910390f35b6100e76101273660046109e1565b610322565b61013f61013a366004610a03565b6104a7565b6040516101109190610a58565b6100e761015a366004610a72565b61053a565b6100e761016d366004610ab1565b6105ce565b6002546100fc906001600160a01b031681565b610198610193366004610a03565b610654565b604051610110989796959493929190610b74565b6101b560015481565b604051908152602001610110565b6100e76101d13660046109e1565b6107a2565b6102026101e4366004610a03565b60009081526003602052604090206004015462010000900460ff1690565b6040519015158152602001610110565b610270610220366004610a03565b60036020819052600091825260409091208054600182015460028301549383015460049093015491936001600160a01b0390911692909160ff808216916101008104821691620100009091041687565b604080519788526001600160a01b03909616602088015294860193909352606085019190915215156080840152151560a0830152151560c082015260e001610110565b6100e76102c1366004610be0565b6107f9565b60008281526003602052604090205482146102fc5760405162461bcd60e51b81526004016102f390610c10565b60405180910390fd5b600091825260036020908152604083206005018054600181018255908452922090910155565b604080516101008101825260015481523360208201529081018390526060810182905260006080820181905260a0820181905260c0820181905260e082019060405190808252806020026020018201604052801561038a578160200160208202803683370190505b50905260018054600090815260036020818152604092839020855181558582015194810180546001600160a01b0319166001600160a01b0390961695909517909455918401516002840155606084015190830155608083015160048301805460a086015160c087015161ffff1990921693151561ff00191693909317610100931515939093029290921762ff00001916620100009215159290920291909117905560e083015180516104429260058501920190610981565b5050600154604080519182523360208301528101849052606081018390527fc245487b0bac1227b70d91464da01fa75f2972f984c41d256d1cb0cfa0a4749a915060800160405180910390a16001805490600061049e83610c54565b91905055505050565b60008181526003602052604090205460609082146104d75760405162461bcd60e51b81526004016102f390610c10565b6000828152600360209081526040918290206005018054835181840281018401909452808452909183018282801561052e57602002820191906000526020600020905b81548152602001906001019080831161051a575b50505050509050919050565b6000546001600160a01b031633146105ac5760405162461bcd60e51b815260206004820152602f60248201527f4f6e6c7920676f7665726e6d656e742063616e2073657420696e73706563746f60448201526e391030baba3437b934bd30ba34b7b760891b60648201526084016102f3565b600280546001600160a01b0319166001600160a01b0392909216919091179055565b6000546001600160a01b031633146105f85760405162461bcd60e51b81526004016102f390610c6d565b60008281526003602052604090819020600401805461ff001916610100179055517fe07ad455e24561261e9047aab2f668ae1fc2cc6fda35021764673613b888836d906106489084908490610cb3565b60405180910390a15050565b6000806000806000806000606088600360008b815260200190815260200160002060000154146106965760405162461bcd60e51b81526004016102f390610c10565b6000898152600360208181526040808420815161010080820184528254825260018301546001600160a01b031682860152600283015482850152948201546060820152600482015460ff808216151560808401529581048616151560a0830152620100009004909416151560c0850152600581018054835181860281018601909452808452919360e0860193929083018282801561075357602002820191906000526020600020905b81548152602001906001019080831161073f575b5050505050815250509050806000015181602001518260400151836060015184608001518560a001518660c001518760e001519850985098509850985098509850985050919395975091939597565b60008281526003602052604090205482146107cf5760405162461bcd60e51b81526004016102f390610c10565b600082815260036020526040812060020180548392906107f0908490610d08565b90915550505050565b6002546001600160a01b0316610838576000546001600160a01b031633146108335760405162461bcd60e51b81526004016102f390610c6d565b610922565b6000546001600160a01b03163314806108b85750600254604051633c99e59360e21b81523360048201526001600160a01b039091169063f267964c90602401602060405180830381865afa158015610894573d6000803e3d6000fd5b505050506040513d601f19601f820116820180604052508101906108b89190610d21565b6109225760405162461bcd60e51b815260206004820152603560248201527f556e617574686f72697a65643a206f6e6c7920676f7665726e6d656e74206f726044820152741030baba3437b934bd32b21034b739b832b1ba37b960591b60648201526084016102f3565b600082815260036020908152604091829020600401805462ff0000191662010000851515908102919091179091558251858152918201527fabe7f558025409962e747c2e921fcacf038a99d3d32300ec5f51a762e61353579101610648565b8280548282559060005260206000209081019282156109bc579160200282015b828111156109bc5782518255916020019190600101906109a1565b506109c89291506109cc565b5090565b5b808211156109c857600081556001016109cd565b600080604083850312156109f457600080fd5b50508035926020909101359150565b600060208284031215610a1557600080fd5b5035919050565b600081518084526020840193506020830160005b82811015610a4e578151865260209586019590910190600101610a30565b5093949350505050565b602081526000610a6b6020830184610a1c565b9392505050565b600060208284031215610a8457600080fd5b81356001600160a01b0381168114610a6b57600080fd5b634e487b7160e01b600052604160045260246000fd5b60008060408385031215610ac457600080fd5b82359150602083013567ffffffffffffffff811115610ae257600080fd5b8301601f81018513610af357600080fd5b803567ffffffffffffffff811115610b0d57610b0d610a9b565b604051601f8201601f19908116603f0116810167ffffffffffffffff81118282101715610b3c57610b3c610a9b565b604052818152828201602001871015610b5457600080fd5b816020840160208301376000602083830101528093505050509250929050565b88815260018060a01b0388166020820152866040820152856060820152841515608082015283151560a082015282151560c082015261010060e08201526000610bc1610100830184610a1c565b9a9950505050505050505050565b8015158114610bdd57600080fd5b50565b60008060408385031215610bf357600080fd5b823591506020830135610c0581610bcf565b809150509250929050565b60208082526014908201527310985d18da08191bd95cc81b9bdd08195e1a5cdd60621b604082015260600190565b634e487b7160e01b600052601160045260246000fd5b600060018201610c6657610c66610c3e565b5060010190565b60208082526026908201527f4f6e6c7920676f7665726e6d656e742063616e2063616c6c20746869732066756040820152653731ba34b7b760d11b606082015260800190565b828152604060208201526000825180604084015260005b81811015610ce75760208186018101516060868401015201610cca565b506000606082850101526060601f19601f8301168401019150509392505050565b81810381811115610d1b57610d1b610c3e565b92915050565b600060208284031215610d3357600080fd5b8151610a6b81610bcf56fea2646970667358221220ef31d1ef59c11d2e58b7c6494aaa905f2a533ee64b4dc3dc4ff92d095983f1b264736f6c634300081b0033",
  "devdoc": {
    "kind": "dev",
    "methods": {},
    "version": 1
  },
  "userdoc": {
    "kind": "user",
    "methods": {
      "setInspectorAuthorization(address)": {
        "notice": "set inspector authorization contract address (only government)"
      }
    },
    "version": 1
  },
  "storageLayout": {
    "storage": [
      {
        "astId": 379,
        "contract": "contracts/FisheriesManagement.sol:FisheriesManagement",
        "label": "government",
        "offset": 0,
        "slot": "0",
        "type": "t_address"
      },
      {
        "astId": 382,
        "contract": "contracts/FisheriesManagement.sol:FisheriesManagement",
        "label": "nextBatchId",
        "offset": 0,
        "slot": "1",
        "type": "t_uint256"
      },
      {
        "astId": 385,
        "contract": "contracts/FisheriesManagement.sol:FisheriesManagement",
        "label": "inspectorAuth",
        "offset": 0,
        "slot": "2",
        "type": "t_contract(InspectorAuthorization)1338"
      },
      {
        "astId": 408,
        "contract": "contracts/FisheriesManagement.sol:FisheriesManagement",
        "label": "batches",
        "offset": 0,
        "slot": "3",
        "type": "t_mapping(t_uint256,t_struct(FishBatch)403_storage)"
      }
    ],
    "types": {
      "t_address": {
        "encoding": "inplace",
        "label": "address",
        "numberOfBytes": "20"
      },
      "t_array(t_uint256)dyn_storage": {
        "base": "t_uint256",
        "encoding": "dynamic_array",
        "label": "uint256[]",
        "numberOfBytes": "32"
      },
      "t_bool": {
        "encoding": "inplace",
        "label": "bool",
        "numberOfBytes": "1"
      },
      "t_contract(InspectorAuthorization)1338": {
        "encoding": "inplace",
        "label": "contract InspectorAuthorization",
        "numberOfBytes": "20"
      },
      "t_mapping(t_uint256,t_struct(FishBatch)403_storage)": {
        "encoding": "mapping",
        "key": "t_uint256",
        "label": "mapping(uint256 => struct FisheriesManagement.FishBatch)",
        "numberOfBytes": "32",
        "value": "t_struct(FishBatch)403_storage"
      },
      "t_struct(FishBatch)403_storage": {
        "encoding": "inplace",
        "label": "struct FisheriesManagement.FishBatch",
        "members": [
          {
            "astId": 387,
            "contract": "contracts/FisheriesManagement.sol:FisheriesManagement",
            "label": "id",
            "offset": 0,
            "slot": "0",
            "type": "t_uint256"
          },
          {
            "astId": 389,
            "contract": "contracts/FisheriesManagement.sol:FisheriesManagement",
            "label": "fisher",
            "offset": 0,
            "slot": "1",
            "type": "t_address"
          },
          {
            "astId": 391,
            "contract": "contracts/FisheriesManagement.sol:FisheriesManagement",
            "label": "weight",
            "offset": 0,
            "slot": "2",
            "type": "t_uint256"
          },
          {
            "astId": 393,
            "contract": "contracts/FisheriesManagement.sol:FisheriesManagement",
            "label": "pricePerKg",
            "offset": 0,
            "slot": "3",
            "type": "t_uint256"
          },
          {
            "astId": 395,
            "contract": "contracts/FisheriesManagement.sol:FisheriesManagement",
            "label": "isSold",
            "offset": 0,
            "slot": "4",
            "type": "t_bool"
          },
          {
            "astId": 397,
            "contract": "contracts/FisheriesManagement.sol:FisheriesManagement",
            "label": "inDispute",
            "offset": 1,
            "slot": "4",
            "type": "t_bool"
          },
          {
            "astId": 399,
            "contract": "contracts/FisheriesManagement.sol:FisheriesManagement",
            "label": "sustainable",
            "offset": 2,
            "slot": "4",
            "type": "t_bool"
          },
          {
            "astId": 402,
            "contract": "contracts/FisheriesManagement.sol:FisheriesManagement",
            "label": "transferIds",
            "offset": 0,
            "slot": "5",
            "type": "t_array(t_uint256)dyn_storage"
          }
        ],
        "numberOfBytes": "192"
      },
      "t_uint256": {
        "encoding": "inplace",
        "label": "uint256",
        "numberOfBytes": "32"
      }
    }
  }
}