{
  "address": "0x5FC8d32690cc91D4c39d9d3abcBD16989F875707",
  "abi": [
    {
      "inputs": [
        {
          "internalType": "address",
          "name": "fisheriesAddress",
          "type": "address"
        },
        {
          "internalType": "address",
          "name": "inspectorAuthAddress",
          "type": "address"
        },
        {
          "internalType": "address",
          "name": "marketplaceAddress",
          "type": "address"
        }
      ],
      "stateMutability": "nonpayable",
      "type": "constructor"
    },
    {
      "anonymous": false,
      "inputs": [
        {
          "indexed": false,
          "internalType": "uint256",
          "name": "listingId",
          "type": "uint256"
        },
        {
          "indexed": false,
          "internalType": "uint256",
          "name": "weight",
          "type": "uint256"
        },
        {
          "indexed": false,
          "internalType": "uint256",
          "name": "totalPrice",
          "type": "uint256"
        }
      ],
      "name": "BuyBack",
      "type": "event"
    },
    {
      "anonymous": false,
      "inputs": [
        {
          "indexed": true,
          "internalType": "address",
          "name": "from",
          "type": "address"
        },
        {
          "indexed": false,
          "internalType": "uint256",
          "name": "amount",
          "type": "uint256"
        }
      ],
      "name": "Deposit",
      "type": "event"
    },
    {
      "anonymous": false,
      "inputs": [
        {
          "indexed": false,
          "internalType": "address",
          "name": "inspector",
          "type": "address"
        }
      ],
      "name": "InspectorAuthorizationRequested",
      "type": "event"
    },
    {
      "anonymous": false,
      "inputs": [
        {
          "indexed": false,
          "internalType": "address",
          "name": "inspector",
          "type": "address"
        }
      ],
      "name": "InspectorRevocationRequested",
      "type": "event"
    },
    {
      "anonymous": false,
      "inputs": [
        {
          "indexed": true,
          "internalType": "uint256",
          "name": "batchId",
          "type": "uint256"
        },
        {
          "indexed": false,
          "internalType": "address",
          "name": "fisher",
          "type": "address"
        },
        {
          "indexed": false,
          "internalType": "uint256",
          "name": "amount",
          "type": "uint256"
        }
      ],
      "name": "InsurancePaidForDisputeBatch",
      "type": "event"
    },
    {
      "anonymous": false,
      "inputs": [
        {
          "indexed": true,
          "internalType": "uint256",
          "name": "batchId",
          "type": "uint256"
        },
        {
          "indexed": false,
          "internalType": "address",
          "name": "fisher",
          "type": "address"
        },
        {
          "indexed": false,
          "internalType": "uint256",
          "name": "amount",
          "type": "uint256"
        }
      ],
      "name": "InsurancePaidForStolenBatch",
      "type": "event"
    },
    {
      "anonymous": false,
      "inputs": [
        {
          "indexed": true,
          "internalType": "uint256",
          "name": "batchId",
          "type": "uint256"
        },
        {
          "indexed": false,
          "internalType": "address",
          "name": "reporter",
          "type": "address"
        }
      ],
      "name": "ReportedStolen",
      "type": "event"
    },
    {
      "anonymous": false,
      "inputs": [
        {
          "indexed": true,
          "internalType": "address",
          "name": "to",
          "type": "address"
        },
        {
          "indexed": false,
          "internalType": "uint256",
          "name": "amount",
          "type": "uint256"
        }
      ],
      "name": "Withdraw",
      "type": "event"
    },
    {
      "inputs": [
        {
          "internalType": "uint256",
          "name": "",
          "type": "uint256"
        }
      ],
      "name": "InsurancePaid",
      "outputs": [
        {
          "internalType": "bool",
          "name": "",
          "type": "bool"
        }
      ],
      "stateMutability": "view",
      "type": "function"
    },
    {
      "inputs": [
        {
          "internalType": "address",
          "name": "_inspectorAdd",
          "type": "address"
        }
      ],
      "name": "authorizeInspector",
      "outputs": [],
      "stateMutability": "nonpayable",
      "type": "function"
    },
    {
      "inputs": [
        {
          "internalType": "uint256",
          "name": "_listingId",
          "type": "uint256"
        },
        {
          "internalType": "uint256",
          "name": "_weight",
          "type": "uint256"
        }
      ],
      "name": "buyBackUnsoldBatch",
      "outputs": [],
      "stateMutability": "nonpayable",
      "type": "function"
    },
    {
      "inputs": [],
      "name": "deposit",
      "outputs": [],
      "stateMutability": "payable",
      "type": "function"
    },
    {
      "inputs": [],
      "name": "fisheries",
      "outputs": [
        {
          "internalType": "contract FisheriesManagement",
          "name": "",
          "type": "address"
        }
      ],
      "stateMutability": "view",
      "type": "function"
    },
    {
      "inputs": [],
      "name": "inspectorAuth",
      "outputs": [
        {
          "internalType": "contract InspectorAuthorization",
          "name": "",
          "type": "address"
        }
      ],
      "stateMutability": "view",
      "type": "function"
    },
    {
      "inputs": [],
      "name": "marketplace",
      "outputs": [
        {
          "internalType": "contract FishMarketplace",
          "name": "",
          "type": "address"
        }
      ],
      "stateMutability": "view",
      "type": "function"
    },
    {
      "inputs": [],
      "name": "owner",
      "outputs": [
        {
          "internalType": "address",
          "name": "",
          "type": "address"
        }
      ],
      "stateMutability": "view",
      "type": "function"
    },
    {
      "inputs": [
        {
          "internalType": "uint256",
          "name": "_batchId",
          "type": "uint256"
        },
        {
          "internalType": "uint256",
          "name": "_amount",
          "type": "uint256"
        }
      ],
      "name": "payInsuranceForDisputeBatch",
      "outputs": [],
      "stateMutability": "nonpayable",
      "type": "function"
    },
    {
      "inputs": [
        {
          "internalType": "uint256",
          "name": "_batchId",
          "type": "uint256"
        },
        {
          "internalType": "uint256",
          "name": "_amount",
          "type": "uint256"
        }
      ],
      "name": "payInsuranceForStolen",
      "outputs": [],
      "stateMutability": "nonpayable",
      "type": "function"
    },
    {
      "inputs": [
        {
          "internalType": "uint256",
          "name": "batchId",
          "type": "uint256"
        }
      ],
      "name": "reportStolen",
      "outputs": [],
      "stateMutability": "nonpayable",
      "type": "function"
    },
    {
      "inputs": [
        {
          "internalType": "address",
          "name": "_inspectorAdd",
          "type": "address"
        }
      ],
      "name": "revokeInspector",
      "outputs": [],
      "stateMutability": "nonpayable",
      "type": "function"
    },
    {
      "inputs": [
        {
          "internalType": "address",
          "name": "addr",
          "type": "address"
        }
      ],
      "name": "setFisheriesManagement",
      "outputs": [],
      "stateMutability": "nonpayable",
      "type": "function"
    },
    {
      "inputs": [
        {
          "internalType": "address",
          "name": "addr",
          "type": "address"
        }
      ],
      "name": "setInspectorAuthorization",
      "outputs": [],
      "stateMutability": "nonpayable",
      "type": "function"
    },
    {
      "inputs": [
        {
          "internalType": "address",
          "name": "addr",
          "type": "address"
        }
      ],
      "name": "setMarketplace",
      "outputs": [],
      "stateMutability": "nonpayable",
      "type": "function"
    },
    {
      "inputs": [
        {
          "internalType": "uint256",
          "name": "",
          "type": "uint256"
        }
      ],
      "name": "stolenBatches",
      "outputs": [
        {
          "internalType": "bool",
          "name": "",
          "type": "bool"
        }
      ],
      "stateMutability": "view",
      "type": "function"
    },
    {
      "inputs": [
        {
          "internalType": "uint256",
          "name": "amount",
          "type": "uint256"
        },
        {
          "internalType": "address payable",
          "name": "to",
          "type": "address"
        }
      ],
      "name": "withdraw",
      "outputs": [],
      "stateMutability": "nonpayable",
      "type": "function"
    },
    {
      "stateMutability": "payable",
      "type": "receive"
    }
  ],
  "transactionHash": "0x7a8bd9edd924109afc8a3764c11748e86c78569d96c1be345eb6b242730a756c",
  "args": [
    "0x5FbDB2315678afecb367f032d93F642f64180aa3",
    "0xCf7Ed3AccA5a467e9e704C703E8D87F634fB0Fc9",
    "0xe7f1725E7734CE288F8367e1Bb143E90bb3F0512"
  ],
  "numDeployments": 1,
  "solcInputHash": "cff29281d7ff05c287594e8e5a024a5f",
  "bytecode": "0x6080604052348015600f57600080fd5b50604051611300380380611300833981016040819052602c916093565b600080546001600160a01b03199081163317909155600180546001600160a01b0395861690831617905560028054938516938216939093179092556003805491909316911617905560cf565b80516001600160a01b0381168114608e57600080fd5b919050565b60008060006060848603121560a757600080fd5b60ae846078565b925060ba602085016078565b915060c6604085016078565b90509250925092565b611222806100de6000396000f3fe6080604052600436106101015760003560e01c80636444ba81116100955780637c3d571e116100645780637c3d571e146103115780638da5cb5b146103315780639c0eaee214610351578063abc8c7af14610371578063d0e30db01461039157600080fd5b80636444ba811461028157806365f3d203146102a157806373ad6c2d146102c157806374405ed8146102e157600080fd5b806342f28cd2116100d157806342f28cd2146101e957806354e47ac114610209578063571743ce146102295780635c52273d1461024957600080fd5b8062f714ce1461014257806304dfea9d14610164578063389a032a146101a95780633d7cc3f3146101c957600080fd5b3661013d5760405134815233907fe1fffcc4923d04b559f4d29a8bfc6cda04eb5b0d3c460751c2402c5c5cc9109c9060200160405180910390a2005b600080fd5b34801561014e57600080fd5b5061016261015d366004610ed2565b610399565b005b34801561017057600080fd5b5061019461017f366004610f02565b60046020526000908152604090205460ff1681565b60405190151581526020015b60405180910390f35b3480156101b557600080fd5b506101626101c4366004610f02565b61049a565b3480156101d557600080fd5b506101626101e4366004610f1b565b6104ec565b3480156101f557600080fd5b50610162610204366004610f1b565b610538565b34801561021557600080fd5b50610162610224366004610f3f565b6105ff565b34801561023557600080fd5b50610162610244366004610f1b565b6108a7565b34801561025557600080fd5b50600154610269906001600160a01b031681565b6040516001600160a01b0390911681526020016101a0565b34801561028d57600080fd5b50600254610269906001600160a01b031681565b3480156102ad57600080fd5b506101626102bc366004610f3f565b6108f3565b3480156102cd57600080fd5b506101626102dc366004610f1b565b610b0a565b3480156102ed57600080fd5b506101946102fc366004610f02565b60056020526000908152604090205460ff1681565b34801561031d57600080fd5b5061016261032c366004610f1b565b610b56565b34801561033d57600080fd5b50600054610269906001600160a01b031681565b34801561035d57600080fd5b5061016261036c366004610f3f565b610c15565b34801561037d57600080fd5b50600354610269906001600160a01b031681565b610162610e86565b6000546001600160a01b031633146103cc5760405162461bcd60e51b81526004016103c390610f61565b60405180910390fd5b8147101561041c5760405162461bcd60e51b815260206004820152601e60248201527f476f7665726e6d656e743a20696e73756666696369656e742066756e6473000060448201526064016103c3565b6040516001600160a01b0382169083156108fc029084906000818181858888f19350505050158015610452573d6000803e3d6000fd5b50806001600160a01b03167f884edad9ce6fa2440d8a54cc123490eb96d2768479d49ff9c7366125a94243648360405161048e91815260200190565b60405180910390a25050565b600081815260046020908152604091829020805460ff19166001179055905133815282917f1b4cf29486681a892afc665614ecece1738b9e6b425f0a9197e7e4589edf8481910160405180910390a250565b6000546001600160a01b031633146105165760405162461bcd60e51b81526004016103c390610f61565b600180546001600160a01b0319166001600160a01b0392909216919091179055565b6000546001600160a01b031633146105625760405162461bcd60e51b81526004016103c390610f61565b600254604051632179466960e11b81526001600160a01b038381166004830152909116906342f28cd290602401600060405180830381600087803b1580156105a957600080fd5b505af19250505080156105ba575060015b6105fc576040516001600160a01b03821681527fceaa9e428c5532bc381b4a8df29bc6463ceaeb7b21d361aabf0ab967980b384b906020015b60405180910390a15b50565b6000546001600160a01b031633146106295760405162461bcd60e51b81526004016103c390610f61565b600154604051636eb46b1960e01b8152600481018490526000918291829182916001600160a01b0390911690636eb46b1990602401600060405180830381865afa15801561067b573d6000803e3d6000fd5b505050506040513d6000823e601f3d908101601f191682016040526106a39190810190610fbb565b5096509650505050935093508584146106f45760405162461bcd60e51b815260206004820152601360248201527210985d18da08191bd95cdb89dd08195e1a5cdd606a1b60448201526064016103c3565b60018215151461073d5760405162461bcd60e51b81526020600482015260146024820152734261746368206e6f7420696e206469737075746560601b60448201526064016103c3565b801561078b5760405162461bcd60e51b815260206004820152601860248201527f4261746368206973206e6f74207375737461696e61626c65000000000000000060448201526064016103c3565b60008681526005602052604090205460ff16156107ba5760405162461bcd60e51b81526004016103c3906110ee565b8447101561080a5760405162461bcd60e51b815260206004820152601e60248201527f476f767420646f65736e2774206861766520656e6f7567682066756e6473000060448201526064016103c3565b6040516001600160a01b0384169086156108fc029087906000818181858888f19350505050158015610840573d6000803e3d6000fd5b50600086815260056020908152604091829020805460ff1916600117905581516001600160a01b038616815290810187905287917fc33bced1888f24bda7a457c0cfeef1faead58750fc79fedd16bd6129cab8f097910160405180910390a2505050505050565b6000546001600160a01b031633146108d15760405162461bcd60e51b81526004016103c390610f61565b600280546001600160a01b0319166001600160a01b0392909216919091179055565b6000546001600160a01b0316331461091d5760405162461bcd60e51b81526004016103c390610f61565b600354604051637d82ed1760e11b81526004810184905260009182916001600160a01b039091169063fb05da2e9060240160e060405180830381865afa15801561096b573d6000803e3d6000fd5b505050506040513d601f19601f8201168201806040525081019061098f9190611159565b5095505050505091508382146109f65760405162461bcd60e51b815260206004820152602660248201527f426174636820646f65736e277420657869737420696e20746865206d61726b6560448201526574706c61636560d01b60648201526084016103c3565b6000610a0282856111c1565b905080471015610a545760405162461bcd60e51b815260206004820152601e60248201527f476f767420646f65736e2774206861766520656e6f7567682066756e6473000060448201526064016103c3565b600354604051635e1ae74360e01b815260048101879052602481018690526001600160a01b0390911690635e1ae7439083906044016000604051808303818588803b158015610aa257600080fd5b505af1158015610ab6573d6000803e3d6000fd5b505060408051898152602081018990529081018590527fc40103bb5dbcb8cdc498524da12b7d249a55b29f5588b12feeb900eda144dc2f93506060019150610afb9050565b60405180910390a15050505050565b6000546001600160a01b03163314610b345760405162461bcd60e51b81526004016103c390610f61565b600380546001600160a01b0319166001600160a01b0392909216919091179055565b6000546001600160a01b03163314610b805760405162461bcd60e51b81526004016103c390610f61565b600254604051633e1eab8f60e11b81526001600160a01b03838116600483015290911690637c3d571e90602401600060405180830381600087803b158015610bc757600080fd5b505af1925050508015610bd8575060015b6105fc576040516001600160a01b03821681527fa88490ac72298b0d06316b07ef73cb02016b1a8b143e348d19271331fea1f5b2906020016105f3565b6000546001600160a01b03163314610c3f5760405162461bcd60e51b81526004016103c390610f61565b60008281526004602052604090205460ff161515600114610c955760405162461bcd60e51b815260206004820152601060248201526f2130ba31b4103737ba1029ba37b632b760811b60448201526064016103c3565b600154604051636eb46b1960e01b81526004810184905260009182916001600160a01b0390911690636eb46b1990602401600060405180830381865afa158015610ce3573d6000803e3d6000fd5b505050506040513d6000823e601f3d908101601f19168201604052610d0b9190810190610fbb565b50505050505091509150838214610d5a5760405162461bcd60e51b815260206004820152601360248201527210985d18da08191bd95cdb89dd08195e1a5cdd606a1b60448201526064016103c3565b60008481526005602052604090205460ff1615610d895760405162461bcd60e51b81526004016103c3906110ee565b82471015610dd95760405162461bcd60e51b815260206004820152601f60248201527f476f767420646f65736e2774206861766520656e6f756768682066756e64730060448201526064016103c3565b6040516001600160a01b0382169084156108fc029085906000818181858888f19350505050158015610e0f573d6000803e3d6000fd5b5060008481526005602090815260408083208054600160ff19918216179091556004835292819020805490931690925581516001600160a01b038416815290810185905285917ff24fe04d603e54d49f4741f31d04b91d54bcaab084dafc5323c6920d5bfc5f74910160405180910390a250505050565b60405134815233907fe1fffcc4923d04b559f4d29a8bfc6cda04eb5b0d3c460751c2402c5c5cc9109c9060200160405180910390a2565b6001600160a01b03811681146105fc57600080fd5b60008060408385031215610ee557600080fd5b823591506020830135610ef781610ebd565b809150509250929050565b600060208284031215610f1457600080fd5b5035919050565b600060208284031215610f2d57600080fd5b8135610f3881610ebd565b9392505050565b60008060408385031215610f5257600080fd5b50508035926020909101359150565b6020808252601590820152744f6e6c7920476f76742063616e20646f207468697360581b604082015260600190565b80518015158114610fa057600080fd5b919050565b634e487b7160e01b600052604160045260246000fd5b600080600080600080600080610100898b031215610fd857600080fd5b885160208a0151909850610feb81610ebd565b60408a015160608b01519198509650945061100860808a01610f90565b935061101660a08a01610f90565b925061102460c08a01610f90565b915060e089015167ffffffffffffffff81111561104057600080fd5b8901601f81018b1361105157600080fd5b805167ffffffffffffffff81111561106b5761106b610fa5565b8060051b604051601f19603f830116810181811067ffffffffffffffff8211171561109857611098610fa5565b60405291825260208184018101929081018e8411156110b657600080fd5b6020850194505b838510156110d9578451808252602095860195909350016110bd565b50809450505050509295985092959890939650565b60208082526045908201527f496e737572616e636520616c726561647920706169642028696e737572616e6360408201527f652063616e206f6e6c7920626520676976656e206f6e636520666f7220612062606082015264617463682960d81b608082015260a00190565b600080600080600080600060e0888a03121561117457600080fd5b8751602089015160408a0151919850965061118e81610ebd565b606089015160808a015160a08b0151929750909550935091506111b360c08901610f90565b905092959891949750929550565b80820281158282048414176111e657634e487b7160e01b600052601160045260246000fd5b9291505056fea26469706673582212207d638a64a9fb7ac74165cc47be051ce1b6e6fc488f91b06216ae4a74e8d01a8e64736f6c634300081b0033",
  "devdoc": {
    "kind": "dev",
    "methods": {},
    "version": 1
  },
  "userdoc": {
    "kind": "user",
    "methods": {},
    "version": 1
  },
  "storageLayout": {
    "storage": [
      {
        "astId": 741,
        "contract": "contracts/Govt.sol:Govt",
        "label": "owner",
        "offset": 0,
        "slot": "0",
        "type": "t_address"
      },
      {
        "astId": 744,
        "contract": "contracts/Govt.sol:Govt",
        "label": "fisheries",
        "offset": 0,
        "slot": "1",
        "type": "t_contract(FisheriesManagement)734"
      },
      {
        "astId": 747,
        "contract": "contracts/Govt.sol:Govt",
        "label": "inspectorAuth",
        "offset": 0,
        "slot": "2",
        "type": "t_contract(InspectorAuthorization)1338"
      },
      {
        "astId": 750,
        "contract": "contracts/Govt.sol:Govt",
        "label": "marketplace",
        "offset": 0,
        "slot": "3",
        "type": "t_contract(FishMarketplace)289"
      },
      {
        "astId": 754,
        "contract": "contracts/Govt.sol:Govt",
        "label": "stolenBatches",
        "offset": 0,
        "slot": "4",
        "type": "t_mapping(t_uint256,t_bool)"
      },
      {
        "astId": 758,
        "contract": "contracts/Govt.sol:Govt",
        "label": "InsurancePaid",
        "offset": 0,
        "slot": "5",
        "type": "t_mapping(t_uint256,t_bool)"
      }
    ],
    "types": {
      "t_address": {
        "encoding": "inplace",
        "label": "address",
        "numberOfBytes": "20"
      },
      "t_bool": {
        "encoding": "inplace",
        "label": "bool",
        "numberOfBytes": "1"
      },
      "t_contract(FishMarketplace)289": {
        "encoding": "inplace",
        "label": "contract FishMarketplace",
        "numberOfBytes": "20"
      },
      "t_contract(FisheriesManagement)734": {
        "encoding": "inplace",
        "label": "contract FisheriesManagement",
        "numberOfBytes": "20"
      },
      "t_contract(InspectorAuthorization)1338": {
        "encoding": "inplace",
        "label": "contract InspectorAuthorization",
        "numberOfBytes": "20"
      },
      "t_mapping(t_uint256,t_bool)": {
        "encoding": "mapping",
        "key": "t_uint256",
        "label": "mapping(uint256 => bool)",
        "numberOfBytes": "32",
        "value": "t_bool"
      },
      "t_uint256": {
        "encoding": "inplace",
        "label": "uint256",
        "numberOfBytes": "32"
      }
    }
  }
}