{
  "_format": "hh-sol-artifact-1",
  "contractName": "InspectorAuthorization",
  "sourceName": "contracts/InspectorAuthorization.sol",
  "abi": [
    {
      "inputs": [],
      "stateMutability": "nonpayable",
      "type": "constructor"
    },
    {
      "anonymous": false,
      "inputs": [
        {
          "indexed": false,
          "internalType": "address",
          "name": "newGovernment",
          "type": "address"
        }
      ],
      "name": "GovernmentChanged",
      "type": "event"
    },
    {
      "anonymous": false,
      "inputs": [
        {
          "indexed": false,
          "internalType": "address",
          "name": "inspector",
          "type": "address"
        }
      ],
      "name": "InspectorAuthorized",
      "type": "event"
    },
    {
      "anonymous": false,
      "inputs": [
        {
          "indexed": false,
          "internalType": "address",
          "name": "inspector",
          "type": "address"
        }
      ],
      "name": "InspectorRevoked",
      "type": "event"
    },
    {
      "inputs": [
        {
          "internalType": "address",
          "name": "inspector",
          "type": "address"
        }
      ],
      "name": "authorizeInspector",
      "outputs": [],
      "stateMutability": "nonpayable",
      "type": "function"
    },
    {
      "inputs": [
        {
          "internalType": "address",
          "name": "",
          "type": "address"
        }
      ],
      "name": "authorizedInspectors",
      "outputs": [
        {
          "internalType": "bool",
          "name": "",
          "type": "bool"
        }
      ],
      "stateMutability": "view",
      "type": "function"
    },
    {
      "inputs": [],
      "name": "government",
      "outputs": [
        {
          "internalType": "address",
          "name": "",
          "type": "address"
        }
      ],
      "stateMutability": "view",
      "type": "function"
    },
    {
      "inputs": [
        {
          "internalType": "address",
          "name": "inspector",
          "type": "address"
        }
      ],
      "name": "revokeInspector",
      "outputs": [],
      "stateMutability": "nonpayable",
      "type": "function"
    },
    {
      "inputs": [
        {
          "internalType": "address",
          "name": "newGovernment",
          "type": "address"
        }
      ],
      "name": "setGovernment",
      "outputs": [],
      "stateMutability": "nonpayable",
      "type": "function"
    }
  ],
  "bytecode": "0x6080604052348015600f57600080fd5b50600080546001600160a01b03191633179055610370806100316000396000f3fe608060405234801561001057600080fd5b50600436106100575760003560e01c80630f4b1cfc1461005c5780632672f5261461007157806342f28cd2146100a15780637c3d571e146100b4578063f267964c146100c7575b600080fd5b61006f61006a3660046102c4565b6100fa565b005b600054610084906001600160a01b031681565b6040516001600160a01b0390911681526020015b60405180910390f35b61006f6100af3660046102c4565b6101ca565b61006f6100c23660046102c4565b610245565b6100ea6100d53660046102c4565b60016020526000908152604090205460ff1681565b6040519015158152602001610098565b6000546001600160a01b0316331461012d5760405162461bcd60e51b8152600401610124906102f4565b60405180910390fd5b6001600160a01b0381166101755760405162461bcd60e51b815260206004820152600f60248201526e496e76616c6964206164647265737360881b6044820152606401610124565b600080546001600160a01b0319166001600160a01b0383169081179091556040519081527f813b5b48dc77e029c5050c0089ef9b94784875d59ff3300cabf4ef9005247df9906020015b60405180910390a150565b6000546001600160a01b031633146101f45760405162461bcd60e51b8152600401610124906102f4565b6001600160a01b038116600081815260016020908152604091829020805460ff1916905590519182527f7636083d2db706a6c1953ddaf9b3d158d178a077090641f9b790859d0860d1e691016101bf565b6000546001600160a01b0316331461026f5760405162461bcd60e51b8152600401610124906102f4565b6001600160a01b038116600081815260016020818152604092839020805460ff191690921790915590519182527fcd96265f3ebff658ab48c4d3018fad3bf231116291603d3e15e6904472e3c86f91016101bf565b6000602082840312156102d657600080fd5b81356001600160a01b03811681146102ed57600080fd5b9392505050565b60208082526026908201527f4f6e6c7920676f7665726e6d656e742063616e2063616c6c20746869732066756040820152653731ba34b7b760d11b60608201526080019056fea2646970667358221220d82379d697de3a3b743187c2fcaa373164921f6dd4faaf3aeee9da5b0c0309ca64736f6c634300081b0033",
  "linkReferences": {},
  "deployedLinkReferences": {}
}