{"contracts/FishTransfer.sol":{"FishTransfer":{"abi":[{"inputs":[{"internalType":"address","name":"fisheriesManagementAddress","type":"address"}],"stateMutability":"nonpayable","type":"constructor"},{"anonymous":false,"inputs":[{"indexed":false,"internalType":"uint256","name":"transferId","type":"uint256"},{"indexed":false,"internalType":"uint256","name":"batchId","type":"uint256"},{"indexed":false,"internalType":"string","name":"stage","type":"string"},{"indexed":false,"internalType":"uint256","name":"timestamp","type":"uint256"}],"name":"TransferRecorded","type":"event"},{"inputs":[],"name":"fisheriesManagement","outputs":[{"internalType":"contract FisheriesManagement","name":"","type":"address"}],"stateMutability":"view","type":"function"},{"inputs":[],"name":"nextTransferId","outputs":[{"internalType":"uint256","name":"","type":"uint256"}],"stateMutability":"view","type":"function"},{"inputs":[{"internalType":"uint256","name":"batchId","type":"uint256"},{"internalType":"string","name":"stage","type":"string"}],"name":"recordTransfer","outputs":[],"stateMutability":"nonpayable","type":"function"},{"inputs":[{"internalType":"uint256","name":"","type":"uint256"}],"name":"transfers","outputs":[{"internalType":"uint256","name":"transferId","type":"uint256"},{"internalType":"uint256","name":"batchId","type":"uint256"},{"internalType":"string","name":"stage","type":"string"},{"internalType":"uint256","name":"timestamp","type":"uint256"}],"stateMutability":"view","type":"function"}],"devdoc":{"kind":"dev","methods":{},"version":1},"evm":{"bytecode":{"linkReferences":{},"object":"60806040526001600255348015601457600080fd5b5060405161062e38038061062e8339810160408190526031916055565b600080546001600160a01b0319166001600160a01b03929092169190911790556083565b600060208284031215606657600080fd5b81516001600160a01b0381168114607c57600080fd5b9392505050565b61059c806100926000396000f3fe608060405234801561001057600080fd5b506004361061004c5760003560e01c806382bab28a146100515780639377d71114610081578063b85b381b146100a4578063ddbb17d3146100bb575b600080fd5b600054610064906001600160a01b031681565b6040516001600160a01b0390911681526020015b60405180910390f35b61009461008f3660046102a2565b6100d0565b60405161007894939291906102bb565b6100ad60025481565b604051908152602001610078565b6100ce6100c9366004610334565b610182565b005b60016020819052600091825260409091208054918101546002820180549192916100f9906103f7565b80601f0160208091040260200160405190810160405280929190818152602001828054610125906103f7565b80156101725780601f1061014757610100808354040283529160200191610172565b820191906000526020600020905b81548152906001019060200180831161015557829003601f168201915b5050505050908060030154905084565b60408051608081018252600280548083526020808401878152848601878152426060870152600093845260019283905295909220845181559151908201559251919291908201906101d39082610480565b506060919091015160039091015560005460025460405163228679a360e01b81526004810185905260248101919091526001600160a01b039091169063228679a390604401600060405180830381600087803b15801561023257600080fd5b505af1158015610246573d6000803e3d6000fd5b505050507fba239e83bd5d7b36d4817073b9f28ddebd5cf01f83ff05612ae2d5f50ed5b6b960025483834260405161028194939291906102bb565b60405180910390a1600280549060006102998361053f565b91905055505050565b6000602082840312156102b457600080fd5b5035919050565b848152836020820152608060408201526000835180608084015260005b818110156102f557602081870181015160a08684010152016102d8565b50600060a0828501015260a0601f19601f83011684010191505082606083015295945050505050565b634e487b7160e01b600052604160045260246000fd5b6000806040838503121561034757600080fd5b82359150602083013567ffffffffffffffff81111561036557600080fd5b8301601f8101851361037657600080fd5b803567ffffffffffffffff8111156103905761039061031e565b604051601f8201601f19908116603f0116810167ffffffffffffffff811182821017156103bf576103bf61031e565b6040528181528282016020018710156103d757600080fd5b816020840160208301376000602083830101528093505050509250929050565b600181811c9082168061040b57607f821691505b60208210810361042b57634e487b7160e01b600052602260045260246000fd5b50919050565b601f82111561047b57806000526020600020601f840160051c810160208510156104585750805b601f840160051c820191505b818110156104785760008155600101610464565b50505b505050565b815167ffffffffffffffff81111561049a5761049a61031e565b6104ae816104a884546103f7565b84610431565b6020601f8211600181146104e257600083156104ca5750848201515b600019600385901b1c1916600184901b178455610478565b600084815260208120601f198516915b8281101561051257878501518255602094850194600190920191016104f2565b50848210156105305786840151600019600387901b60f8161c191681555b50505050600190811b01905550565b60006001820161055f57634e487b7160e01b600052601160045260246000fd5b506001019056fea264697066735822122025979f16f634d6200f4b135b447358b4b35ab2851da947d573d1b66f9ae9770264736f6c634300081b0033","opcodes":"PUSH1 0x80 PUSH1 0x40 MSTORE PUSH1 0x1 PUSH1 0x2 SSTORE CALLVALUE DUP1 ISZERO PUSH1 0x14 JUMPI PUSH1 0x0 DUP1 REVERT JUMPDEST POP PUSH1 0x40 MLOAD PUSH2 0x62E CODESIZE SUB DUP1 PUSH2 0x62E DUP4 CODECOPY DUP2 ADD PUSH1 0x40 DUP2 SWAP1 MSTORE PUSH1 0x31 SWAP2 PUSH1 0x55 JUMP JUMPDEST PUSH1 0x0 DUP1 SLOAD PUSH1 0x1 PUSH1 0x1 PUSH1 0xA0 SHL SUB NOT AND PUSH1 0x1 PUSH1 0x1 PUSH1 0xA0 SHL SUB SWAP3 SWAP1 SWAP3 AND SWAP2 SWAP1 SWAP2 OR SWAP1 SSTORE PUSH1 0x83 JUMP JUMPDEST PUSH1 0x0 PUSH1 0x20 DUP3 DUP5 SUB SLT ISZERO PUSH1 0x66 JUMPI PUSH1 0x0 DUP1 REVERT JUMPDEST DUP2 MLOAD PUSH1 0x1 PUSH1 0x1 PUSH1 0xA0 SHL SUB DUP2 AND DUP2 EQ PUSH1 0x7C JUMPI PUSH1 0x0 DUP1 REVERT JUMPDEST SWAP4 SWAP3 POP POP POP JUMP JUMPDEST PUSH2 0x59C DUP1 PUSH2 0x92 PUSH1 0x0 CODECOPY PUSH1 0x0 RETURN INVALID PUSH1 0x80 PUSH1 0x40 MSTORE CALLVALUE DUP1 ISZERO PUSH2 0x10 JUMPI PUSH1 0x0 DUP1 REVERT JUMPDEST POP PUSH1 0x4 CALLDATASIZE LT PUSH2 0x4C JUMPI PUSH1 0x0 CALLDATALOAD PUSH1 0xE0 SHR DUP1 PUSH4 0x82BAB28A EQ PUSH2 0x51 JUMPI DUP1 PUSH4 0x9377D711 EQ PUSH2 0x81 JUMPI DUP1 PUSH4 0xB85B381B EQ PUSH2 0xA4 JUMPI DUP1 PUSH4 0xDDBB17D3 EQ PUSH2 0xBB JUMPI JUMPDEST PUSH1 0x0 DUP1 REVERT JUMPDEST PUSH1 0x0 SLOAD PUSH2 0x64 SWAP1 PUSH1 0x1 PUSH1 0x1 PUSH1 0xA0 SHL SUB AND DUP2 JUMP JUMPDEST PUSH1 0x40 MLOAD PUSH1 0x1 PUSH1 0x1 PUSH1 0xA0 SHL SUB SWAP1 SWAP2 AND DUP2 MSTORE PUSH1 0x20 ADD JUMPDEST PUSH1 0x40 MLOAD DUP1 SWAP2 SUB SWAP1 RETURN JUMPDEST PUSH2 0x94 PUSH2 0x8F CALLDATASIZE PUSH1 0x4 PUSH2 0x2A2 JUMP JUMPDEST PUSH2 0xD0 JUMP JUMPDEST PUSH1 0x40 MLOAD PUSH2 0x78 SWAP5 SWAP4 SWAP3 SWAP2 SWAP1 PUSH2 0x2BB JUMP JUMPDEST PUSH2 0xAD PUSH1 0x2 SLOAD DUP2 JUMP JUMPDEST PUSH1 0x40 MLOAD SWAP1 DUP2 MSTORE PUSH1 0x20 ADD PUSH2 0x78 JUMP JUMPDEST PUSH2 0xCE PUSH2 0xC9 CALLDATASIZE PUSH1 0x4 PUSH2 0x334 JUMP JUMPDEST PUSH2 0x182 JUMP JUMPDEST STOP JUMPDEST PUSH1 0x1 PUSH1 0x20 DUP2 SWAP1 MSTORE PUSH1 0x0 SWAP2 DUP3 MSTORE PUSH1 0x40 SWAP1 SWAP2 KECCAK256 DUP1 SLOAD SWAP2 DUP2 ADD SLOAD PUSH1 0x2 DUP3 ADD DUP1 SLOAD SWAP2 SWAP3 SWAP2 PUSH2 0xF9 SWAP1 PUSH2 0x3F7 JUMP JUMPDEST DUP1 PUSH1 0x1F ADD PUSH1 0x20 DUP1 SWAP2 DIV MUL PUSH1 0x20 ADD PUSH1 0x40 MLOAD SWAP1 DUP2 ADD PUSH1 0x40 MSTORE DUP1 SWAP3 SWAP2 SWAP1 DUP2 DUP2 MSTORE PUSH1 0x20 ADD DUP3 DUP1 SLOAD PUSH2 0x125 SWAP1 PUSH2 0x3F7 JUMP JUMPDEST DUP1 ISZERO PUSH2 0x172 JUMPI DUP1 PUSH1 0x1F LT PUSH2 0x147 JUMPI PUSH2 0x100 DUP1 DUP4 SLOAD DIV MUL DUP4 MSTORE SWAP2 PUSH1 0x20 ADD SWAP2 PUSH2 0x172 JUMP JUMPDEST DUP3 ADD SWAP2 SWAP1 PUSH1 0x0 MSTORE PUSH1 0x20 PUSH1 0x0 KECCAK256 SWAP1 JUMPDEST DUP2 SLOAD DUP2 MSTORE SWAP1 PUSH1 0x1 ADD SWAP1 PUSH1 0x20 ADD DUP1 DUP4 GT PUSH2 0x155 JUMPI DUP3 SWAP1 SUB PUSH1 0x1F AND DUP3 ADD SWAP2 JUMPDEST POP POP POP POP POP SWAP1 DUP1 PUSH1 0x3 ADD SLOAD SWAP1 POP DUP5 JUMP JUMPDEST PUSH1 0x40 DUP1 MLOAD PUSH1 0x80 DUP2 ADD DUP3 MSTORE PUSH1 0x2 DUP1 SLOAD DUP1 DUP4 MSTORE PUSH1 0x20 DUP1 DUP5 ADD DUP8 DUP2 MSTORE DUP5 DUP7 ADD DUP8 DUP2 MSTORE TIMESTAMP PUSH1 0x60 DUP8 ADD MSTORE PUSH1 0x0 SWAP4 DUP5 MSTORE PUSH1 0x1 SWAP3 DUP4 SWAP1 MSTORE SWAP6 SWAP1 SWAP3 KECCAK256 DUP5 MLOAD DUP2 SSTORE SWAP2 MLOAD SWAP1 DUP3 ADD SSTORE SWAP3 MLOAD SWAP2 SWAP3 SWAP2 SWAP1 DUP3 ADD SWAP1 PUSH2 0x1D3 SWAP1 DUP3 PUSH2 0x480 JUMP JUMPDEST POP PUSH1 0x60 SWAP2 SWAP1 SWAP2 ADD MLOAD PUSH1 0x3 SWAP1 SWAP2 ADD SSTORE PUSH1 0x0 SLOAD PUSH1 0x2 SLOAD PUSH1 0x40 MLOAD PUSH4 0x228679A3 PUSH1 0xE0 SHL DUP2 MSTORE PUSH1 0x4 DUP2 ADD DUP6 SWAP1 MSTORE PUSH1 0x24 DUP2 ADD SWAP2 SWAP1 SWAP2 MSTORE PUSH1 0x1 PUSH1 0x1 PUSH1 0xA0 SHL SUB SWAP1 SWAP2 AND SWAP1 PUSH4 0x228679A3 SWAP1 PUSH1 0x44 ADD PUSH1 0x0 PUSH1 0x40 MLOAD DUP1 DUP4 SUB DUP2 PUSH1 0x0 DUP8 DUP1 EXTCODESIZE ISZERO DUP1 ISZERO PUSH2 0x232 JUMPI PUSH1 0x0 DUP1 REVERT JUMPDEST POP GAS CALL ISZERO DUP1 ISZERO PUSH2 0x246 JUMPI RETURNDATASIZE PUSH1 0x0 DUP1 RETURNDATACOPY RETURNDATASIZE PUSH1 0x0 REVERT JUMPDEST POP POP POP POP PUSH32 0xBA239E83BD5D7B36D4817073B9F28DDEBD5CF01F83FF05612AE2D5F50ED5B6B9 PUSH1 0x2 SLOAD DUP4 DUP4 TIMESTAMP PUSH1 0x40 MLOAD PUSH2 0x281 SWAP5 SWAP4 SWAP3 SWAP2 SWAP1 PUSH2 0x2BB JUMP JUMPDEST PUSH1 0x40 MLOAD DUP1 SWAP2 SUB SWAP1 LOG1 PUSH1 0x2 DUP1 SLOAD SWAP1 PUSH1 0x0 PUSH2 0x299 DUP4 PUSH2 0x53F JUMP JUMPDEST SWAP2 SWAP1 POP SSTORE POP POP POP JUMP JUMPDEST PUSH1 0x0 PUSH1 0x20 DUP3 DUP5 SUB SLT ISZERO PUSH2 0x2B4 JUMPI PUSH1 0x0 DUP1 REVERT JUMPDEST POP CALLDATALOAD SWAP2 SWAP1 POP JUMP JUMPDEST DUP5 DUP2 MSTORE DUP4 PUSH1 0x20 DUP3 ADD MSTORE PUSH1 0x80 PUSH1 0x40 DUP3 ADD MSTORE PUSH1 0x0 DUP4 MLOAD DUP1 PUSH1 0x80 DUP5 ADD MSTORE PUSH1 0x0 JUMPDEST DUP2 DUP2 LT ISZERO PUSH2 0x2F5 JUMPI PUSH1 0x20 DUP2 DUP8 ADD DUP2 ADD MLOAD PUSH1 0xA0 DUP7 DUP5 ADD ADD MSTORE ADD PUSH2 0x2D8 JUMP JUMPDEST POP PUSH1 0x0 PUSH1 0xA0 DUP3 DUP6 ADD ADD MSTORE PUSH1 0xA0 PUSH1 0x1F NOT PUSH1 0x1F DUP4 ADD AND DUP5 ADD ADD SWAP2 POP POP DUP3 PUSH1 0x60 DUP4 ADD MSTORE SWAP6 SWAP5 POP POP POP POP POP JUMP JUMPDEST PUSH4 0x4E487B71 PUSH1 0xE0 SHL PUSH1 0x0 MSTORE PUSH1 0x41 PUSH1 0x4 MSTORE PUSH1 0x24 PUSH1 0x0 REVERT JUMPDEST PUSH1 0x0 DUP1 PUSH1 0x40 DUP4 DUP6 SUB SLT ISZERO PUSH2 0x347 JUMPI PUSH1 0x0 DUP1 REVERT JUMPDEST DUP3 CALLDATALOAD SWAP2 POP PUSH1 0x20 DUP4 ADD CALLDATALOAD PUSH8 0xFFFFFFFFFFFFFFFF DUP2 GT ISZERO PUSH2 0x365 JUMPI PUSH1 0x0 DUP1 REVERT JUMPDEST DUP4 ADD PUSH1 0x1F DUP2 ADD DUP6 SGT PUSH2 0x376 JUMPI PUSH1 0x0 DUP1 REVERT JUMPDEST DUP1 CALLDATALOAD PUSH8 0xFFFFFFFFFFFFFFFF DUP2 GT ISZERO PUSH2 0x390 JUMPI PUSH2 0x390 PUSH2 0x31E JUMP JUMPDEST PUSH1 0x40 MLOAD PUSH1 0x1F DUP3 ADD PUSH1 0x1F NOT SWAP1 DUP2 AND PUSH1 0x3F ADD AND DUP2 ADD PUSH8 0xFFFFFFFFFFFFFFFF DUP2 GT DUP3 DUP3 LT OR ISZERO PUSH2 0x3BF JUMPI PUSH2 0x3BF PUSH2 0x31E JUMP JUMPDEST PUSH1 0x40 MSTORE DUP2 DUP2 MSTORE DUP3 DUP3 ADD PUSH1 0x20 ADD DUP8 LT ISZERO PUSH2 0x3D7 JUMPI PUSH1 0x0 DUP1 REVERT JUMPDEST DUP2 PUSH1 0x20 DUP5 ADD PUSH1 0x20 DUP4 ADD CALLDATACOPY PUSH1 0x0 PUSH1 0x20 DUP4 DUP4 ADD ADD MSTORE DUP1 SWAP4 POP POP POP POP SWAP3 POP SWAP3 SWAP1 POP JUMP JUMPDEST PUSH1 0x1 DUP2 DUP2 SHR SWAP1 DUP3 AND DUP1 PUSH2 0x40B JUMPI PUSH1 0x7F DUP3 AND SWAP2 POP JUMPDEST PUSH1 0x20 DUP3 LT DUP2 SUB PUSH2 0x42B JUMPI PUSH4 0x4E487B71 PUSH1 0xE0 SHL PUSH1 0x0 MSTORE PUSH1 0x22 PUSH1 0x4 MSTORE PUSH1 0x24 PUSH1 0x0 REVERT JUMPDEST POP SWAP2 SWAP1 POP JUMP JUMPDEST PUSH1 0x1F DUP3 GT ISZERO PUSH2 0x47B JUMPI DUP1 PUSH1 0x0 MSTORE PUSH1 0x20 PUSH1 0x0 KECCAK256 PUSH1 0x1F DUP5 ADD PUSH1 0x5 SHR DUP2 ADD PUSH1 0x20 DUP6 LT ISZERO PUSH2 0x458 JUMPI POP DUP1 JUMPDEST PUSH1 0x1F DUP5 ADD PUSH1 0x5 SHR DUP3 ADD SWAP2 POP JUMPDEST DUP2 DUP2 LT ISZERO PUSH2 0x478 JUMPI PUSH1 0x0 DUP2 SSTORE PUSH1 0x1 ADD PUSH2 0x464 JUMP JUMPDEST POP POP JUMPDEST POP POP POP JUMP JUMPDEST DUP2 MLOAD PUSH8 0xFFFFFFFFFFFFFFFF DUP2 GT ISZERO PUSH2 0x49A JUMPI PUSH2 0x49A PUSH2 0x31E JUMP JUMPDEST PUSH2 0x4AE DUP2 PUSH2 0x4A8 DUP5 SLOAD PUSH2 0x3F7 JUMP JUMPDEST DUP5 PUSH2 0x431 JUMP JUMPDEST PUSH1 0x20 PUSH1 0x1F DUP3 GT PUSH1 0x1 DUP2 EQ PUSH2 0x4E2 JUMPI PUSH1 0x0 DUP4 ISZERO PUSH2 0x4CA JUMPI POP DUP5 DUP3 ADD MLOAD JUMPDEST PUSH1 0x0 NOT PUSH1 0x3 DUP6 SWAP1 SHL SHR NOT AND PUSH1 0x1 DUP5 SWAP1 SHL OR DUP5 SSTORE PUSH2 0x478 JUMP JUMPDEST PUSH1 0x0 DUP5 DUP2 MSTORE PUSH1 0x20 DUP2 KECCAK256 PUSH1 0x1F NOT DUP6 AND SWAP2 JUMPDEST DUP3 DUP2 LT ISZERO PUSH2 0x512 JUMPI DUP8 DUP6 ADD MLOAD DUP3 SSTORE PUSH1 0x20 SWAP5 DUP6 ADD SWAP5 PUSH1 0x1 SWAP1 SWAP3 ADD SWAP2 ADD PUSH2 0x4F2 JUMP JUMPDEST POP DUP5 DUP3 LT ISZERO PUSH2 0x530 JUMPI DUP7 DUP5 ADD MLOAD PUSH1 0x0 NOT PUSH1 0x3 DUP8 SWAP1 SHL PUSH1 0xF8 AND SHR NOT AND DUP2 SSTORE JUMPDEST POP POP POP POP PUSH1 0x1 SWAP1 DUP2 SHL ADD SWAP1 SSTORE POP JUMP JUMPDEST PUSH1 0x0 PUSH1 0x1 DUP3 ADD PUSH2 0x55F JUMPI PUSH4 0x4E487B71 PUSH1 0xE0 SHL PUSH1 0x0 MSTORE PUSH1 0x11 PUSH1 0x4 MSTORE PUSH1 0x24 PUSH1 0x0 REVERT JUMPDEST POP PUSH1 0x1 ADD SWAP1 JUMP INVALID LOG2 PUSH5 0x6970667358 0x22 SLT KECCAK256 0x25 SWAP8 SWAP16 AND 0xF6 CALLVALUE 0xD6 KECCAK256 0xF 0x4B SGT JUMPDEST PREVRANDAO PUSH20 0x58B4B35AB2851DA947D573D1B66F9AE977026473 PUSH16 0x6C634300081B00330000000000000000 "},"gasEstimates":{"creation":{"codeDepositCost":"287200","executionCost":"infinite","totalCost":"infinite"},"external":{"fisheriesManagement()":"2304","nextTransferId()":"2317","recordTransfer(uint256,string)":"infinite","transfers(uint256)":"infinite"}},"methodIdentifiers":{"fisheriesManagement()":"82bab28a","nextTransferId()":"b85b381b","recordTransfer(uint256,string)":"ddbb17d3","transfers(uint256)":"9377d711"}},"storageLayout":{"storage":[{"astId":296,"contract":"contracts/FishTransfer.sol:FishTransfer","label":"fisheriesManagement","offset":0,"slot":"0","type":"t_contract(FisheriesManagement)734"},{"astId":310,"contract":"contracts/FishTransfer.sol:FishTransfer","label":"transfers","offset":0,"slot":"1","type":"t_mapping(t_uint256,t_struct(Transfer)305_storage)"},{"astId":313,"contract":"contracts/FishTransfer.sol:FishTransfer","label":"nextTransferId","offset":0,"slot":"2","type":"t_uint256"}],"types":{"t_contract(FisheriesManagement)734":{"encoding":"inplace","label":"contract FisheriesManagement","numberOfBytes":"20"},"t_mapping(t_uint256,t_struct(Transfer)305_storage)":{"encoding":"mapping","key":"t_uint256","label":"mapping(uint256 => struct FishTransfer.Transfer)","numberOfBytes":"32","value":"t_struct(Transfer)305_storage"},"t_string_storage":{"encoding":"bytes","label":"string","numberOfBytes":"32"},"t_struct(Transfer)305_storage":{"encoding":"inplace","label":"struct FishTransfer.Transfer","members":[{"astId":298,"contract":"contracts/FishTransfer.sol:FishTransfer","label":"transferId","offset":0,"slot":"0","type":"t_uint256"},{"astId":300,"contract":"contracts/FishTransfer.sol:FishTransfer","label":"batchId","offset":0,"slot":"1","type":"t_uint256"},{"astId":302,"contract":"contracts/FishTransfer.sol:FishTransfer","label":"stage","offset":0,"slot":"2","type":"t_string_storage"},{"astId":304,"contract":"contracts/FishTransfer.sol:FishTransfer","label":"timestamp","offset":0,"slot":"3","type":"t_uint256"}],"numberOfBytes":"128"},"t_uint256":{"encoding":"inplace","label":"uint256","numberOfBytes":"32"}}},"userdoc":{"kind":"user","methods":{},"version":1}}}}