{"contracts/InspectorAuthorization.sol":{"InspectorAuthorization":{"abi":[{"inputs":[],"stateMutability":"nonpayable","type":"constructor"},{"anonymous":false,"inputs":[{"indexed":false,"internalType":"address","name":"newGovernment","type":"address"}],"name":"GovernmentChanged","type":"event"},{"anonymous":false,"inputs":[{"indexed":false,"internalType":"address","name":"inspector","type":"address"}],"name":"InspectorAuthorized","type":"event"},{"anonymous":false,"inputs":[{"indexed":false,"internalType":"address","name":"inspector","type":"address"}],"name":"InspectorRevoked","type":"event"},{"inputs":[{"internalType":"address","name":"inspector","type":"address"}],"name":"authorizeInspector","outputs":[],"stateMutability":"nonpayable","type":"function"},{"inputs":[{"internalType":"address","name":"","type":"address"}],"name":"authorizedInspectors","outputs":[{"internalType":"bool","name":"","type":"bool"}],"stateMutability":"view","type":"function"},{"inputs":[],"name":"government","outputs":[{"internalType":"address","name":"","type":"address"}],"stateMutability":"view","type":"function"},{"inputs":[{"internalType":"address","name":"inspector","type":"address"}],"name":"revokeInspector","outputs":[],"stateMutability":"nonpayable","type":"function"},{"inputs":[{"internalType":"address","name":"newGovernment","type":"address"}],"name":"setGovernment","outputs":[],"stateMutability":"nonpayable","type":"function"}],"devdoc":{"kind":"dev","methods":{},"version":1},"evm":{"bytecode":{"linkReferences":{},"object":"6080604052348015600f57600080fd5b50600080546001600160a01b03191633179055610370806100316000396000f3fe608060405234801561001057600080fd5b50600436106100575760003560e01c80630f4b1cfc1461005c5780632672f5261461007157806342f28cd2146100a15780637c3d571e146100b4578063f267964c146100c7575b600080fd5b61006f61006a3660046102c4565b6100fa565b005b600054610084906001600160a01b031681565b6040516001600160a01b0390911681526020015b60405180910390f35b61006f6100af3660046102c4565b6101ca565b61006f6100c23660046102c4565b610245565b6100ea6100d53660046102c4565b60016020526000908152604090205460ff1681565b6040519015158152602001610098565b6000546001600160a01b0316331461012d5760405162461bcd60e51b8152600401610124906102f4565b60405180910390fd5b6001600160a01b0381166101755760405162461bcd60e51b815260206004820152600f60248201526e496e76616c6964206164647265737360881b6044820152606401610124565b600080546001600160a01b0319166001600160a01b0383169081179091556040519081527f813b5b48dc77e029c5050c0089ef9b94784875d59ff3300cabf4ef9005247df9906020015b60405180910390a150565b6000546001600160a01b031633146101f45760405162461bcd60e51b8152600401610124906102f4565b6001600160a01b038116600081815260016020908152604091829020805460ff1916905590519182527f7636083d2db706a6c1953ddaf9b3d158d178a077090641f9b790859d0860d1e691016101bf565b6000546001600160a01b0316331461026f5760405162461bcd60e51b8152600401610124906102f4565b6001600160a01b038116600081815260016020818152604092839020805460ff191690921790915590519182527fcd96265f3ebff658ab48c4d3018fad3bf231116291603d3e15e6904472e3c86f91016101bf565b6000602082840312156102d657600080fd5b81356001600160a01b03811681146102ed57600080fd5b9392505050565b60208082526026908201527f4f6e6c7920676f7665726e6d656e742063616e2063616c6c20746869732066756040820152653731ba34b7b760d11b60608201526080019056fea2646970667358221220d82379d697de3a3b743187c2fcaa373164921f6dd4faaf3aeee9da5b0c0309ca64736f6c634300081b0033","opcodes":"PUSH1 0x80 PUSH1 0x40 MSTORE CALLVALUE DUP1 ISZERO PUSH1 0xF JUMPI PUSH1 0x0 DUP1 REVERT JUMPDEST POP PUSH1 0x0 DUP1 SLOAD PUSH1 0x1 PUSH1 0x1 PUSH1 0xA0 SHL SUB NOT AND CALLER OR SWAP1 SSTORE PUSH2 0x370 DUP1 PUSH2 0x31 PUSH1 0x0 CODECOPY PUSH1 0x0 RETURN INVALID PUSH1 0x80 PUSH1 0x40 MSTORE CALLVALUE DUP1 ISZERO PUSH2 0x10 JUMPI PUSH1 0x0 DUP1 REVERT JUMPDEST POP PUSH1 0x4 CALLDATASIZE LT PUSH2 0x57 JUMPI PUSH1 0x0 CALLDATALOAD PUSH1 0xE0 SHR DUP1 PUSH4 0xF4B1CFC EQ PUSH2 0x5C JUMPI DUP1 PUSH4 0x2672F526 EQ PUSH2 0x71 JUMPI DUP1 PUSH4 0x42F28CD2 EQ PUSH2 0xA1 JUMPI DUP1 PUSH4 0x7C3D571E EQ PUSH2 0xB4 JUMPI DUP1 PUSH4 0xF267964C EQ PUSH2 0xC7 JUMPI JUMPDEST PUSH1 0x0 DUP1 REVERT JUMPDEST PUSH2 0x6F PUSH2 0x6A CALLDATASIZE PUSH1 0x4 PUSH2 0x2C4 JUMP JUMPDEST PUSH2 0xFA JUMP JUMPDEST STOP JUMPDEST PUSH1 0x0 SLOAD PUSH2 0x84 SWAP1 PUSH1 0x1 PUSH1 0x1 PUSH1 0xA0 SHL SUB AND DUP2 JUMP JUMPDEST PUSH1 0x40 MLOAD PUSH1 0x1 PUSH1 0x1 PUSH1 0xA0 SHL SUB SWAP1 SWAP2 AND DUP2 MSTORE PUSH1 0x20 ADD JUMPDEST PUSH1 0x40 MLOAD DUP1 SWAP2 SUB SWAP1 RETURN JUMPDEST PUSH2 0x6F PUSH2 0xAF CALLDATASIZE PUSH1 0x4 PUSH2 0x2C4 JUMP JUMPDEST PUSH2 0x1CA JUMP JUMPDEST PUSH2 0x6F PUSH2 0xC2 CALLDATASIZE PUSH1 0x4 PUSH2 0x2C4 JUMP JUMPDEST PUSH2 0x245 JUMP JUMPDEST PUSH2 0xEA PUSH2 0xD5 CALLDATASIZE PUSH1 0x4 PUSH2 0x2C4 JUMP JUMPDEST PUSH1 0x1 PUSH1 0x20 MSTORE PUSH1 0x0 SWAP1 DUP2 MSTORE PUSH1 0x40 SWAP1 KECCAK256 SLOAD PUSH1 0xFF AND DUP2 JUMP JUMPDEST PUSH1 0x40 MLOAD SWAP1 ISZERO ISZERO DUP2 MSTORE PUSH1 0x20 ADD PUSH2 0x98 JUMP JUMPDEST PUSH1 0x0 SLOAD PUSH1 0x1 PUSH1 0x1 PUSH1 0xA0 SHL SUB AND CALLER EQ PUSH2 0x12D JUMPI PUSH1 0x40 MLOAD PUSH3 0x461BCD PUSH1 0xE5 SHL DUP2 MSTORE PUSH1 0x4 ADD PUSH2 0x124 SWAP1 PUSH2 0x2F4 JUMP JUMPDEST PUSH1 0x40 MLOAD DUP1 SWAP2 SUB SWAP1 REVERT JUMPDEST PUSH1 0x1 PUSH1 0x1 PUSH1 0xA0 SHL SUB DUP2 AND PUSH2 0x175 JUMPI PUSH1 0x40 MLOAD PUSH3 0x461BCD PUSH1 0xE5 SHL DUP2 MSTORE PUSH1 0x20 PUSH1 0x4 DUP3 ADD MSTORE PUSH1 0xF PUSH1 0x24 DUP3 ADD MSTORE PUSH15 0x496E76616C69642061646472657373 PUSH1 0x88 SHL PUSH1 0x44 DUP3 ADD MSTORE PUSH1 0x64 ADD PUSH2 0x124 JUMP JUMPDEST PUSH1 0x0 DUP1 SLOAD PUSH1 0x1 PUSH1 0x1 PUSH1 0xA0 SHL SUB NOT AND PUSH1 0x1 PUSH1 0x1 PUSH1 0xA0 SHL SUB DUP4 AND SWAP1 DUP2 OR SWAP1 SWAP2 SSTORE PUSH1 0x40 MLOAD SWAP1 DUP2 MSTORE PUSH32 0x813B5B48DC77E029C5050C0089EF9B94784875D59FF3300CABF4EF9005247DF9 SWAP1 PUSH1 0x20 ADD JUMPDEST PUSH1 0x40 MLOAD DUP1 SWAP2 SUB SWAP1 LOG1 POP JUMP JUMPDEST PUSH1 0x0 SLOAD PUSH1 0x1 PUSH1 0x1 PUSH1 0xA0 SHL SUB AND CALLER EQ PUSH2 0x1F4 JUMPI PUSH1 0x40 MLOAD PUSH3 0x461BCD PUSH1 0xE5 SHL DUP2 MSTORE PUSH1 0x4 ADD PUSH2 0x124 SWAP1 PUSH2 0x2F4 JUMP JUMPDEST PUSH1 0x1 PUSH1 0x1 PUSH1 0xA0 SHL SUB DUP2 AND PUSH1 0x0 DUP2 DUP2 MSTORE PUSH1 0x1 PUSH1 0x20 SWAP1 DUP2 MSTORE PUSH1 0x40 SWAP2 DUP3 SWAP1 KECCAK256 DUP1 SLOAD PUSH1 0xFF NOT AND SWAP1 SSTORE SWAP1 MLOAD SWAP2 DUP3 MSTORE PUSH32 0x7636083D2DB706A6C1953DDAF9B3D158D178A077090641F9B790859D0860D1E6 SWAP2 ADD PUSH2 0x1BF JUMP JUMPDEST PUSH1 0x0 SLOAD PUSH1 0x1 PUSH1 0x1 PUSH1 0xA0 SHL SUB AND CALLER EQ PUSH2 0x26F JUMPI PUSH1 0x40 MLOAD PUSH3 0x461BCD PUSH1 0xE5 SHL DUP2 MSTORE PUSH1 0x4 ADD PUSH2 0x124 SWAP1 PUSH2 0x2F4 JUMP JUMPDEST PUSH1 0x1 PUSH1 0x1 PUSH1 0xA0 SHL SUB DUP2 AND PUSH1 0x0 DUP2 DUP2 MSTORE PUSH1 0x1 PUSH1 0x20 DUP2 DUP2 MSTORE PUSH1 0x40 SWAP3 DUP4 SWAP1 KECCAK256 DUP1 SLOAD PUSH1 0xFF NOT AND SWAP1 SWAP3 OR SWAP1 SWAP2 SSTORE SWAP1 MLOAD SWAP2 DUP3 MSTORE PUSH32 0xCD96265F3EBFF658AB48C4D3018FAD3BF231116291603D3E15E6904472E3C86F SWAP2 ADD PUSH2 0x1BF JUMP JUMPDEST PUSH1 0x0 PUSH1 0x20 DUP3 DUP5 SUB SLT ISZERO PUSH2 0x2D6 JUMPI PUSH1 0x0 DUP1 REVERT JUMPDEST DUP2 CALLDATALOAD PUSH1 0x1 PUSH1 0x1 PUSH1 0xA0 SHL SUB DUP2 AND DUP2 EQ PUSH2 0x2ED JUMPI PUSH1 0x0 DUP1 REVERT JUMPDEST SWAP4 SWAP3 POP POP POP JUMP JUMPDEST PUSH1 0x20 DUP1 DUP3 MSTORE PUSH1 0x26 SWAP1 DUP3 ADD MSTORE PUSH32 0x4F6E6C7920676F7665726E6D656E742063616E2063616C6C2074686973206675 PUSH1 0x40 DUP3 ADD MSTORE PUSH6 0x3731BA34B7B7 PUSH1 0xD1 SHL PUSH1 0x60 DUP3 ADD MSTORE PUSH1 0x80 ADD SWAP1 JUMP INVALID LOG2 PUSH5 0x6970667358 0x22 SLT KECCAK256 0xD8 0x23 PUSH26 0xD697DE3A3B743187C2FCAA373164921F6DD4FAAF3AEEE9DA5B0C SUB MULMOD 0xCA PUSH5 0x736F6C6343 STOP ADDMOD SHL STOP CALLER "},"gasEstimates":{"creation":{"codeDepositCost":"176000","executionCost":"24455","totalCost":"200455"},"external":{"authorizeInspector(address)":"27848","authorizedInspectors(address)":"2562","government()":"2326","revokeInspector(address)":"27814","setGovernment(address)":"27743"}},"methodIdentifiers":{"authorizeInspector(address)":"7c3d571e","authorizedInspectors(address)":"f267964c","government()":"2672f526","revokeInspector(address)":"42f28cd2","setGovernment(address)":"0f4b1cfc"}},"storageLayout":{"storage":[{"astId":1237,"contract":"contracts/InspectorAuthorization.sol:InspectorAuthorization","label":"government","offset":0,"slot":"0","type":"t_address"},{"astId":1241,"contract":"contracts/InspectorAuthorization.sol:InspectorAuthorization","label":"authorizedInspectors","offset":0,"slot":"1","type":"t_mapping(t_address,t_bool)"}],"types":{"t_address":{"encoding":"inplace","label":"address","numberOfBytes":"20"},"t_bool":{"encoding":"inplace","label":"bool","numberOfBytes":"1"},"t_mapping(t_address,t_bool)":{"encoding":"mapping","key":"t_address","label":"mapping(address => bool)","numberOfBytes":"32","value":"t_bool"}}},"userdoc":{"kind":"user","methods":{"setGovernment(address)":{"notice":"Set a new government address. Callable only by current government."}},"version":1}}}}